{
  "contractName": "CoinFlip",
  "abi": [
    {
      "inputs": [],
      "payable": true,
      "stateMutability": "payable",
      "type": "constructor"
    },
    {
      "anonymous": false,
      "inputs": [
        {
          "indexed": false,
          "internalType": "bool",
          "name": "plawin",
          "type": "bool"
        }
      ],
      "name": "Player_Win",
      "type": "event"
    },
    {
      "constant": true,
      "inputs": [],
      "name": "balance",
      "outputs": [
        {
          "internalType": "uint256",
          "name": "",
          "type": "uint256"
        }
      ],
      "payable": false,
      "stateMutability": "view",
      "type": "function"
    },
    {
      "constant": true,
      "inputs": [
        {
          "internalType": "bytes32",
          "name": "",
          "type": "bytes32"
        }
      ],
      "name": "player_id_address",
      "outputs": [
        {
          "internalType": "address",
          "name": "",
          "type": "address"
        }
      ],
      "payable": false,
      "stateMutability": "view",
      "type": "function"
    },
    {
      "constant": true,
      "inputs": [
        {
          "internalType": "address",
          "name": "",
          "type": "address"
        }
      ],
      "name": "player_info",
      "outputs": [
        {
          "internalType": "bytes32",
          "name": "queryId",
          "type": "bytes32"
        },
        {
          "internalType": "uint256",
          "name": "amountToWithdraw",
          "type": "uint256"
        },
        {
          "internalType": "uint256",
          "name": "bet_player",
          "type": "uint256"
        },
        {
          "internalType": "bool",
          "name": "current_play",
          "type": "bool"
        },
        {
          "internalType": "bool",
          "name": "head_or_tail",
          "type": "bool"
        },
        {
          "internalType": "uint256",
          "name": "player_random_Number",
          "type": "uint256"
        },
        {
          "internalType": "bool",
          "name": "player_win",
          "type": "bool"
        },
        {
          "internalType": "uint256",
          "name": "status",
          "type": "uint256"
        }
      ],
      "payable": false,
      "stateMutability": "view",
      "type": "function"
    },
    {
      "constant": true,
      "inputs": [],
      "name": "result_random",
      "outputs": [
        {
          "internalType": "uint256",
          "name": "",
          "type": "uint256"
        }
      ],
      "payable": false,
      "stateMutability": "view",
      "type": "function"
    },
    {
      "constant": false,
      "inputs": [],
      "name": "sendFund",
      "outputs": [],
      "payable": true,
      "stateMutability": "payable",
      "type": "function"
    },
    {
      "constant": false,
      "inputs": [
        {
          "internalType": "bytes32",
          "name": "_queryId",
          "type": "bytes32"
        },
        {
          "internalType": "string",
          "name": "_result",
          "type": "string"
        }
      ],
      "name": "__callback",
      "outputs": [],
      "payable": false,
      "stateMutability": "nonpayable",
      "type": "function"
    },
    {
      "constant": false,
      "inputs": [
        {
          "internalType": "bytes32",
          "name": "_myid",
          "type": "bytes32"
        },
        {
          "internalType": "string",
          "name": "_result",
          "type": "string"
        },
        {
          "internalType": "bytes",
          "name": "_proof",
          "type": "bytes"
        }
      ],
      "name": "__callback",
      "outputs": [],
      "payable": false,
      "stateMutability": "nonpayable",
      "type": "function"
    },
    {
      "constant": false,
      "inputs": [],
      "name": "update",
      "outputs": [],
      "payable": true,
      "stateMutability": "payable",
      "type": "function"
    },
    {
      "constant": false,
      "inputs": [],
      "name": "withdrawUserFunds",
      "outputs": [],
      "payable": false,
      "stateMutability": "nonpayable",
      "type": "function"
    },
    {
      "constant": true,
      "inputs": [],
      "name": "getUserBalance",
      "outputs": [
        {
          "internalType": "uint256",
          "name": "",
          "type": "uint256"
        }
      ],
      "payable": false,
      "stateMutability": "view",
      "type": "function"
    },
    {
      "constant": true,
      "inputs": [],
      "name": "getSmartContractBalance",
      "outputs": [
        {
          "internalType": "uint256",
          "name": "",
          "type": "uint256"
        }
      ],
      "payable": false,
      "stateMutability": "view",
      "type": "function"
    },
    {
      "constant": true,
      "inputs": [],
      "name": "who_wins",
      "outputs": [
        {
          "internalType": "bool",
          "name": "",
          "type": "bool"
        }
      ],
      "payable": false,
      "stateMutability": "view",
      "type": "function"
    },
    {
      "constant": false,
      "inputs": [
        {
          "internalType": "bool",
          "name": "head_player",
          "type": "bool"
        },
        {
          "internalType": "bool",
          "name": "tail_player",
          "type": "bool"
        }
      ],
      "name": "FlipTheCoin",
      "outputs": [],
      "payable": true,
      "stateMutability": "payable",
      "type": "function"
    }
  ],
  "bytecode": "0x60806040526706f05b59d3b2000034101561001957600080fd5b33600560006101000a81548173ffffffffffffffffffffffffffffffffffffffff021916908373ffffffffffffffffffffffffffffffffffffffff1602179055503460066000828254019250508190555034600860008282540192505081905550613903806100896000396000f3fe6080604052600436106100c25760003560e01c8063a2e620451161007f578063c134d3d211610059578063c134d3d214610473578063d429712314610515578063dd0cf15d14610540578063ec0d7c241461054a576100c2565b8063a2e6204514610413578063b69ef8a81461041d578063b7013dc114610448576100c2565b80631b784708146100c757806327dc297e1461010357806338bbfa50146101d55780635145cbc01461033e5780639eaeafb714610369578063a03d18d7146103e4575b600080fd5b610101600480360360408110156100dd57600080fd5b81019080803515159060200190929190803515159060200190929190505050610561565b005b34801561010f57600080fd5b506101d36004803603604081101561012657600080fd5b81019080803590602001909291908035906020019064010000000081111561014d57600080fd5b82018360208201111561015f57600080fd5b8035906020019184600183028401116401000000008311171561018157600080fd5b91908080601f016020809104026020016040519081016040528093929190818152602001838380828437600081840152601f19601f8201169050808301925050505050505091929192905050506107d6565b005b3480156101e157600080fd5b5061033c600480360360608110156101f857600080fd5b81019080803590602001909291908035906020019064010000000081111561021f57600080fd5b82018360208201111561023157600080fd5b8035906020019184600183028401116401000000008311171561025357600080fd5b91908080601f016020809104026020016040519081016040528093929190818152602001838380828437600081840152601f19601f820116905080830192505050505050509192919290803590602001906401000000008111156102b657600080fd5b8201836020820111156102c857600080fd5b803590602001918460018302840111640100000000831117156102ea57600080fd5b91908080601f016020809104026020016040519081016040528093929190818152602001838380828437600081840152601f19601f8201169050808301925050505050505091929192905050506114d5565b005b34801561034a57600080fd5b506103536114f8565b6040518082815260200191505060405180910390f35b34801561037557600080fd5b506103a26004803603602081101561038c57600080fd5b8101908080359060200190929190505050611502565b604051808273ffffffffffffffffffffffffffffffffffffffff1673ffffffffffffffffffffffffffffffffffffffff16815260200191505060405180910390f35b3480156103f057600080fd5b506103f9611535565b604051808215151515815260200191505060405180910390f35b61041b6115a4565b005b34801561042957600080fd5b5061043261169b565b6040518082815260200191505060405180910390f35b34801561045457600080fd5b5061045d6116a1565b6040518082815260200191505060405180910390f35b34801561047f57600080fd5b506104c26004803603602081101561049657600080fd5b81019080803573ffffffffffffffffffffffffffffffffffffffff1690602001909291905050506116f0565b604051808981526020018881526020018781526020018615151515815260200185151515158152602001848152602001831515151581526020018281526020019850505050505050505060405180910390f35b34801561052157600080fd5b5061052a61175f565b6040518082815260200191505060405180910390f35b610548611765565b005b34801561055657600080fd5b5061055f6117b3565b005b67016345785d8a00008034101561057757600080fd5b6000341161058457600080fd5b6001151583151514801561059c575060001515821515145b806105bb5750600015158315151480156105ba575060011515821515145b5b6105c457600080fd5b3460086000828254039250508190555060003460065403116105e557600080fd5b600854600654116105f557600080fd5b60001515600960003373ffffffffffffffffffffffffffffffffffffffff1673ffffffffffffffffffffffffffffffffffffffff16815260200190815260200160002060030160009054906101000a900460ff1615151461065557600080fd5b6001600960003373ffffffffffffffffffffffffffffffffffffffff1673ffffffffffffffffffffffffffffffffffffffff16815260200190815260200160002060030160006101000a81548160ff0219169083151502179055508215610716576001600960003373ffffffffffffffffffffffffffffffffffffffff1673ffffffffffffffffffffffffffffffffffffffff16815260200190815260200160002060030160016101000a81548160ff021916908315150217905550610772565b6000600960003373ffffffffffffffffffffffffffffffffffffffff1673ffffffffffffffffffffffffffffffffffffffff16815260200190815260200160002060030160016101000a81548160ff0219169083151502179055505b34600960003373ffffffffffffffffffffffffffffffffffffffff1673ffffffffffffffffffffffffffffffffffffffff16815260200190815260200160002060020181905550346006600082825401925050819055506107d16115a4565b505050565b6107de61188c565b73ffffffffffffffffffffffffffffffffffffffff163373ffffffffffffffffffffffffffffffffffffffff161461081557600080fd5b60006002826040516020018082805190602001908083835b60208310610850578051825260208201915060208101905060208303925061082d565b6001836020036101000a0380198251168184511680821785525050505050509050019150506040516020818303038152906040528051906020012060001c8161089557fe5b0690508060096000600a600087815260200190815260200160002060009054906101000a900473ffffffffffffffffffffffffffffffffffffffff1673ffffffffffffffffffffffffffffffffffffffff1673ffffffffffffffffffffffffffffffffffffffff1681526020019081526020016000206004018190555080600781905550600060096000600a600087815260200190815260200160002060009054906101000a900473ffffffffffffffffffffffffffffffffffffffff1673ffffffffffffffffffffffffffffffffffffffff1673ffffffffffffffffffffffffffffffffffffffff16815260200190815260200160002060060181905550600060096000600a600087815260200190815260200160002060009054906101000a900473ffffffffffffffffffffffffffffffffffffffff1673ffffffffffffffffffffffffffffffffffffffff1673ffffffffffffffffffffffffffffffffffffffff16815260200190815260200160002060050160006101000a81548160ff0219169083151502179055506000809050600160096000600a600088815260200190815260200160002060009054906101000a900473ffffffffffffffffffffffffffffffffffffffff1673ffffffffffffffffffffffffffffffffffffffff1673ffffffffffffffffffffffffffffffffffffffff16815260200190815260200160002060040154148015610b3257506001151560096000600a600088815260200190815260200160002060009054906101000a900473ffffffffffffffffffffffffffffffffffffffff1673ffffffffffffffffffffffffffffffffffffffff1673ffffffffffffffffffffffffffffffffffffffff16815260200190815260200160002060030160019054906101000a900460ff161515145b15610c4557600160096000600a600088815260200190815260200160002060009054906101000a900473ffffffffffffffffffffffffffffffffffffffff1673ffffffffffffffffffffffffffffffffffffffff1673ffffffffffffffffffffffffffffffffffffffff16815260200190815260200160002060050160006101000a81548160ff021916908315150217905550600160096000600a600088815260200190815260200160002060009054906101000a900473ffffffffffffffffffffffffffffffffffffffff1673ffffffffffffffffffffffffffffffffffffffff1673ffffffffffffffffffffffffffffffffffffffff16815260200190815260200160002060060181905550610f6e565b600060096000600a600088815260200190815260200160002060009054906101000a900473ffffffffffffffffffffffffffffffffffffffff1673ffffffffffffffffffffffffffffffffffffffff1673ffffffffffffffffffffffffffffffffffffffff16815260200190815260200160002060040154148015610d5057506000151560096000600a600088815260200190815260200160002060009054906101000a900473ffffffffffffffffffffffffffffffffffffffff1673ffffffffffffffffffffffffffffffffffffffff1673ffffffffffffffffffffffffffffffffffffffff16815260200190815260200160002060030160019054906101000a900460ff161515145b15610e6357600160096000600a600088815260200190815260200160002060009054906101000a900473ffffffffffffffffffffffffffffffffffffffff1673ffffffffffffffffffffffffffffffffffffffff1673ffffffffffffffffffffffffffffffffffffffff16815260200190815260200160002060050160006101000a81548160ff021916908315150217905550600260096000600a600088815260200190815260200160002060009054906101000a900473ffffffffffffffffffffffffffffffffffffffff1673ffffffffffffffffffffffffffffffffffffffff1673ffffffffffffffffffffffffffffffffffffffff16815260200190815260200160002060060181905550610f6d565b600060096000600a600088815260200190815260200160002060009054906101000a900473ffffffffffffffffffffffffffffffffffffffff1673ffffffffffffffffffffffffffffffffffffffff1673ffffffffffffffffffffffffffffffffffffffff16815260200190815260200160002060050160006101000a81548160ff021916908315150217905550600360096000600a600088815260200190815260200160002060009054906101000a900473ffffffffffffffffffffffffffffffffffffffff1673ffffffffffffffffffffffffffffffffffffffff1673ffffffffffffffffffffffffffffffffffffffff168152602001908152602001600020600601819055505b5b6001151560096000600a600088815260200190815260200160002060009054906101000a900473ffffffffffffffffffffffffffffffffffffffff1673ffffffffffffffffffffffffffffffffffffffff1673ffffffffffffffffffffffffffffffffffffffff16815260200190815260200160002060050160009054906101000a900460ff16151514156112e757606461107f60096000600a600089815260200190815260200160002060009054906101000a900473ffffffffffffffffffffffffffffffffffffffff1673ffffffffffffffffffffffffffffffffffffffff1673ffffffffffffffffffffffffffffffffffffffff1681526020019081526020016000206002015460be611ba9565b8161108657fe5b049050806006600082825403925050819055508060096000600a600088815260200190815260200160002060009054906101000a900473ffffffffffffffffffffffffffffffffffffffff1673ffffffffffffffffffffffffffffffffffffffff1673ffffffffffffffffffffffffffffffffffffffff16815260200190815260200160002060010160008282540192505081905550600460096000600a600088815260200190815260200160002060009054906101000a900473ffffffffffffffffffffffffffffffffffffffff1673ffffffffffffffffffffffffffffffffffffffff1673ffffffffffffffffffffffffffffffffffffffff16815260200190815260200160002060060181905550600060096000600a600088815260200190815260200160002060009054906101000a900473ffffffffffffffffffffffffffffffffffffffff1673ffffffffffffffffffffffffffffffffffffffff1673ffffffffffffffffffffffffffffffffffffffff16815260200190815260200160002060030160006101000a81548160ff0219169083151502179055507f0748ca803d6f53eecdcd8314b956ffcc896ac9f757a39f900e9751b1f3101c8e60096000600a600088815260200190815260200160002060009054906101000a900473ffffffffffffffffffffffffffffffffffffffff1673ffffffffffffffffffffffffffffffffffffffff1673ffffffffffffffffffffffffffffffffffffffff16815260200190815260200160002060050160009054906101000a900460ff16604051808215151515815260200191505060405180910390a16114cf565b606461136960096000600a600089815260200190815260200160002060009054906101000a900473ffffffffffffffffffffffffffffffffffffffff1673ffffffffffffffffffffffffffffffffffffffff1673ffffffffffffffffffffffffffffffffffffffff1681526020019081526020016000206002015460c8611ba9565b8161137057fe5b04905080600860008282540192505081905550600060096000600a600088815260200190815260200160002060009054906101000a900473ffffffffffffffffffffffffffffffffffffffff1673ffffffffffffffffffffffffffffffffffffffff1673ffffffffffffffffffffffffffffffffffffffff16815260200190815260200160002060030160006101000a81548160ff0219169083151502179055507f0748ca803d6f53eecdcd8314b956ffcc896ac9f757a39f900e9751b1f3101c8e60096000600a600088815260200190815260200160002060009054906101000a900473ffffffffffffffffffffffffffffffffffffffff1673ffffffffffffffffffffffffffffffffffffffff1673ffffffffffffffffffffffffffffffffffffffff16815260200190815260200160002060050160009054906101000a900460ff16604051808215151515815260200191505060405180910390a15b50505050565b6000801b600360008060001b815260200190815260200160002081905550505050565b6000600654905090565b600a6020528060005260406000206000915054906101000a900473ffffffffffffffffffffffffffffffffffffffff1681565b600060011515600960003373ffffffffffffffffffffffffffffffffffffffff1673ffffffffffffffffffffffffffffffffffffffff16815260200190815260200160002060050160009054906101000a900460ff161515141561159c57600190506115a1565b600090505b90565b6000809050600062030d4090506115bd82600183611c2f565b600960003373ffffffffffffffffffffffffffffffffffffffff1673ffffffffffffffffffffffffffffffffffffffff1681526020019081526020016000206000018190555033600a6000600960003373ffffffffffffffffffffffffffffffffffffffff1673ffffffffffffffffffffffffffffffffffffffff16815260200190815260200160002060000154815260200190815260200160002060006101000a81548173ffffffffffffffffffffffffffffffffffffffff021916908373ffffffffffffffffffffffffffffffffffffffff1602179055505050565b60065481565b600080600960003373ffffffffffffffffffffffffffffffffffffffff1673ffffffffffffffffffffffffffffffffffffffff1681526020019081526020016000206001015490508091505090565b60096020528060005260406000206000915090508060000154908060010154908060020154908060030160009054906101000a900460ff16908060030160019054906101000a900460ff16908060040154908060050160009054906101000a900460ff16908060060154905088565b60075481565b670de0b6b3a76400008034101561177b57600080fd5b670de0b6b3a764000034101561179057600080fd5b346006600082825401925050819055503460086000828254019250508190555050565b6000600960003373ffffffffffffffffffffffffffffffffffffffff1673ffffffffffffffffffffffffffffffffffffffff1681526020019081526020016000206001015490506000600960003373ffffffffffffffffffffffffffffffffffffffff1673ffffffffffffffffffffffffffffffffffffffff168152602001908152602001600020600101819055503373ffffffffffffffffffffffffffffffffffffffff166108fc829081150290604051600060405180830381858888f19350505050158015611888573d6000803e3d6000fd5b5050565b60008073ffffffffffffffffffffffffffffffffffffffff16600160009054906101000a900473ffffffffffffffffffffffffffffffffffffffff1673ffffffffffffffffffffffffffffffffffffffff16148061191457506000611912600160009054906101000a900473ffffffffffffffffffffffffffffffffffffffff166121ca565b145b156119255761192360006121d5565b505b600160009054906101000a900473ffffffffffffffffffffffffffffffffffffffff1673ffffffffffffffffffffffffffffffffffffffff166338cc48316040518163ffffffff1660e01b8152600401602060405180830381600087803b15801561198f57600080fd5b505af11580156119a3573d6000803e3d6000fd5b505050506040513d60208110156119b957600080fd5b810190808051906020019092919050505073ffffffffffffffffffffffffffffffffffffffff166000809054906101000a900473ffffffffffffffffffffffffffffffffffffffff1673ffffffffffffffffffffffffffffffffffffffff1614611b0257600160009054906101000a900473ffffffffffffffffffffffffffffffffffffffff1673ffffffffffffffffffffffffffffffffffffffff166338cc48316040518163ffffffff1660e01b8152600401602060405180830381600087803b158015611a8757600080fd5b505af1158015611a9b573d6000803e3d6000fd5b505050506040513d6020811015611ab157600080fd5b81019080805190602001909291905050506000806101000a81548173ffffffffffffffffffffffffffffffffffffffff021916908373ffffffffffffffffffffffffffffffffffffffff1602179055505b6000809054906101000a900473ffffffffffffffffffffffffffffffffffffffff1673ffffffffffffffffffffffffffffffffffffffff1663c281d19e6040518163ffffffff1660e01b815260040160206040518083038186803b158015611b6957600080fd5b505afa158015611b7d573d6000803e3d6000fd5b505050506040513d6020811015611b9357600080fd5b8101908080519060200190929190505050905090565b600080831415611bbc5760009050611c29565b6000828402905082848281611bcd57fe5b0414611c24576040517f08c379a00000000000000000000000000000000000000000000000000000000081526004018080602001828103825260218152602001806138ae6021913960400191505060405180910390fd5b809150505b92915050565b60008083118015611c41575060208311155b611c4a57600080fd5b600a84029350606060016040519080825280601f01601f191660200182016040528015611c865781602001600182028038833980820191505090505b5090508360f81b81600081518110611c9a57fe5b60200101907effffffffffffffffffffffffffffffffffffffffffffffffffffffffffffff1916908160001a905350606060206040519080825280601f01601f191660200182016040528015611cff5781602001600182028038833980820191505090505b509050606060206040519080825280601f01601f191660200182016040528015611d385781602001600182028038833980820191505090505b5090506000611d456121e6565b905060208352424118600143034018602084015260208252806020830152606060206040519080825280601f01601f191660200182016040528015611d995781602001600182028038833980820191505090505b509050886020820152606060086040519080825280601f01601f191660200182016040528015611dd85781602001600182028038833980820191505090505b509050611deb8260186008846000612503565b50611df46137c7565b60405180608001604052808781526020018881526020018681526020018481525090506000611e596040518060400160405280600681526020017f72616e646f6d0000000000000000000000000000000000000000000000000000815250838c612562565b9050606060086040519080825280601f01601f191660200182016040528015611e915781602001600182028038833980820191505090505b50905060208401517f0100000000000000000000000000000000000000000000000000000000000000810460278301537e01000000000000000000000000000000000000000000000000000000000000810460268301537d010000000000000000000000000000000000000000000000000000000000810460258301537c0100000000000000000000000000000000000000000000000000000000810460248301537b01000000000000000000000000000000000000000000000000000000810460238301537a0100000000000000000000000000000000000000000000000000008104602283015379010000000000000000000000000000000000000000000000000081046021830153780100000000000000000000000000000000000000000000000081046020830153506121b7828285600160048110611fd057fe5b6020020151600287600060048110611fe457fe5b60200201516040518082805190602001908083835b6020831061201c5780518252602082019150602081019050602083039250611ff9565b6001836020036101000a038019825116818451168082178552505050505050905001915050602060405180830381855afa15801561205e573d6000803e3d6000fd5b5050506040513d602081101561207357600080fd5b81019080805190602001909291905050508760026004811061209157fe5b60200201516040516020018085805190602001908083835b602083106120cc57805182526020820191506020810190506020830392506120a9565b6001836020036101000a03801982511681845116808217855250505050505090500184805190602001908083835b6020831061211d57805182526020820191506020810190506020830392506120fa565b6001836020036101000a03801982511681845116808217855250505050505090500183815260200182805190602001908083835b602083106121745780518252602082019150602081019050602083039250612151565b6001836020036101000a038019825116818451168082178552505050505050905001945050505050604051602081830303815290604052805190602001206128cf565b8199505050505050505050509392505050565b6000813b9050919050565b60006121df6128eb565b9050919050565b60008073ffffffffffffffffffffffffffffffffffffffff16600160009054906101000a900473ffffffffffffffffffffffffffffffffffffffff1673ffffffffffffffffffffffffffffffffffffffff16148061226e5750600061226c600160009054906101000a900473ffffffffffffffffffffffffffffffffffffffff166121ca565b145b1561227f5761227d60006121d5565b505b600160009054906101000a900473ffffffffffffffffffffffffffffffffffffffff1673ffffffffffffffffffffffffffffffffffffffff166338cc48316040518163ffffffff1660e01b8152600401602060405180830381600087803b1580156122e957600080fd5b505af11580156122fd573d6000803e3d6000fd5b505050506040513d602081101561231357600080fd5b810190808051906020019092919050505073ffffffffffffffffffffffffffffffffffffffff166000809054906101000a900473ffffffffffffffffffffffffffffffffffffffff1673ffffffffffffffffffffffffffffffffffffffff161461245c57600160009054906101000a900473ffffffffffffffffffffffffffffffffffffffff1673ffffffffffffffffffffffffffffffffffffffff166338cc48316040518163ffffffff1660e01b8152600401602060405180830381600087803b1580156123e157600080fd5b505af11580156123f5573d6000803e3d6000fd5b505050506040513d602081101561240b57600080fd5b81019080805190602001909291905050506000806101000a81548173ffffffffffffffffffffffffffffffffffffffff021916908373ffffffffffffffffffffffffffffffffffffffff1602179055505b6000809054906101000a900473ffffffffffffffffffffffffffffffffffffffff1673ffffffffffffffffffffffffffffffffffffffff1663abaa5f3e6040518163ffffffff1660e01b815260040160206040518083038186803b1580156124c357600080fd5b505afa1580156124d7573d6000803e3d6000fd5b505050506040513d60208110156124ed57600080fd5b8101908080519060200190929190505050905090565b606060008285019050808451101561251a57600080fd5b600086602001905060008460200190505b868860200101821015612553578189015180828801525060208201915060208101905061252b565b85935050505095945050505050565b60008073ffffffffffffffffffffffffffffffffffffffff16600160009054906101000a900473ffffffffffffffffffffffffffffffffffffffff1673ffffffffffffffffffffffffffffffffffffffff1614806125ea575060006125e8600160009054906101000a900473ffffffffffffffffffffffffffffffffffffffff166121ca565b145b156125fb576125f960006121d5565b505b600160009054906101000a900473ffffffffffffffffffffffffffffffffffffffff1673ffffffffffffffffffffffffffffffffffffffff166338cc48316040518163ffffffff1660e01b8152600401602060405180830381600087803b15801561266557600080fd5b505af1158015612679573d6000803e3d6000fd5b505050506040513d602081101561268f57600080fd5b810190808051906020019092919050505073ffffffffffffffffffffffffffffffffffffffff166000809054906101000a900473ffffffffffffffffffffffffffffffffffffffff1673ffffffffffffffffffffffffffffffffffffffff16146127d857600160009054906101000a900473ffffffffffffffffffffffffffffffffffffffff1673ffffffffffffffffffffffffffffffffffffffff166338cc48316040518163ffffffff1660e01b8152600401602060405180830381600087803b15801561275d57600080fd5b505af1158015612771573d6000803e3d6000fd5b505050506040513d602081101561278757600080fd5b81019080805190602001909291905050506000806101000a81548173ffffffffffffffffffffffffffffffffffffffff021916908373ffffffffffffffffffffffffffffffffffffffff1602179055505b6060600460405190808252806020026020018201604052801561280f57816020015b60608152602001906001900390816127fa5790505b5090508360006004811061281f57fe5b60200201518160008151811061283157fe5b60200260200101819052508360016004811061284957fe5b60200201518160018151811061285b57fe5b60200260200101819052508360026004811061287357fe5b60200201518160028151811061288557fe5b60200260200101819052508360036004811061289d57fe5b6020020151816003815181106128af57fe5b60200260200101819052506128c5858285612e42565b9150509392505050565b8060036000848152602001908152602001600020819055505050565b60008061290b731d3b2638a7cc9f2cb3d298a3da7a90b67e5506ed6121ca565b11156129ad57731d3b2638a7cc9f2cb3d298a3da7a90b67e5506ed600160006101000a81548173ffffffffffffffffffffffffffffffffffffffff021916908373ffffffffffffffffffffffffffffffffffffffff1602179055506129a46040518060400160405280600b81526020017f6574685f6d61696e6e65740000000000000000000000000000000000000000008152506133a4565b60019050612e3f565b60006129cc73c03a2615d5efaf5f49f60b7bb6583eaec212fdf16121ca565b1115612a6e5773c03a2615d5efaf5f49f60b7bb6583eaec212fdf1600160006101000a81548173ffffffffffffffffffffffffffffffffffffffff021916908373ffffffffffffffffffffffffffffffffffffffff160217905550612a656040518060400160405280600c81526020017f6574685f726f707374656e3300000000000000000000000000000000000000008152506133a4565b60019050612e3f565b6000612a8d73b7a07bcf2ba2f2703b24c0691b5278999c59ac7e6121ca565b1115612b2f5773b7a07bcf2ba2f2703b24c0691b5278999c59ac7e600160006101000a81548173ffffffffffffffffffffffffffffffffffffffff021916908373ffffffffffffffffffffffffffffffffffffffff160217905550612b266040518060400160405280600981526020017f6574685f6b6f76616e00000000000000000000000000000000000000000000008152506133a4565b60019050612e3f565b6000612b4e73146500cfd35b22e4a392fe0adc06de1a1368ed486121ca565b1115612bf05773146500cfd35b22e4a392fe0adc06de1a1368ed48600160006101000a81548173ffffffffffffffffffffffffffffffffffffffff021916908373ffffffffffffffffffffffffffffffffffffffff160217905550612be76040518060400160405280600b81526020017f6574685f72696e6b6562790000000000000000000000000000000000000000008152506133a4565b60019050612e3f565b6000612c0f73a2998efd205fb9d4b4963afb70778d6354ad3a416121ca565b1115612cb15773a2998efd205fb9d4b4963afb70778d6354ad3a41600160006101000a81548173ffffffffffffffffffffffffffffffffffffffff021916908373ffffffffffffffffffffffffffffffffffffffff160217905550612ca86040518060400160405280600a81526020017f6574685f676f65726c69000000000000000000000000000000000000000000008152506133a4565b60019050612e3f565b6000612cd0736f485c8bf6fc43ea212e93bbf8ce046c7f1cb4756121ca565b1115612d3457736f485c8bf6fc43ea212e93bbf8ce046c7f1cb475600160006101000a81548173ffffffffffffffffffffffffffffffffffffffff021916908373ffffffffffffffffffffffffffffffffffffffff16021790555060019050612e3f565b6000612d537320e12a1f859b3feae5fb2a0a32c18f5a65555bbf6121ca565b1115612db7577320e12a1f859b3feae5fb2a0a32c18f5a65555bbf600160006101000a81548173ffffffffffffffffffffffffffffffffffffffff021916908373ffffffffffffffffffffffffffffffffffffffff16021790555060019050612e3f565b6000612dd67351efaf4c8b3c9afbd5ab9f4bbc82784ab6ef8faa6121ca565b1115612e3a577351efaf4c8b3c9afbd5ab9f4bbc82784ab6ef8faa600160006101000a81548173ffffffffffffffffffffffffffffffffffffffff021916908373ffffffffffffffffffffffffffffffffffffffff16021790555060019050612e3f565b600090505b90565b60008073ffffffffffffffffffffffffffffffffffffffff16600160009054906101000a900473ffffffffffffffffffffffffffffffffffffffff1673ffffffffffffffffffffffffffffffffffffffff161480612eca57506000612ec8600160009054906101000a900473ffffffffffffffffffffffffffffffffffffffff166121ca565b145b15612edb57612ed960006121d5565b505b600160009054906101000a900473ffffffffffffffffffffffffffffffffffffffff1673ffffffffffffffffffffffffffffffffffffffff166338cc48316040518163ffffffff1660e01b8152600401602060405180830381600087803b158015612f4557600080fd5b505af1158015612f59573d6000803e3d6000fd5b505050506040513d6020811015612f6f57600080fd5b810190808051906020019092919050505073ffffffffffffffffffffffffffffffffffffffff166000809054906101000a900473ffffffffffffffffffffffffffffffffffffffff1673ffffffffffffffffffffffffffffffffffffffff16146130b857600160009054906101000a900473ffffffffffffffffffffffffffffffffffffffff1673ffffffffffffffffffffffffffffffffffffffff166338cc48316040518163ffffffff1660e01b8152600401602060405180830381600087803b15801561303d57600080fd5b505af1158015613051573d6000803e3d6000fd5b505050506040513d602081101561306757600080fd5b81019080805190602001909291905050506000806101000a81548173ffffffffffffffffffffffffffffffffffffffff021916908373ffffffffffffffffffffffffffffffffffffffff1602179055505b60008060009054906101000a900473ffffffffffffffffffffffffffffffffffffffff1673ffffffffffffffffffffffffffffffffffffffff16632ef3accc86856040518363ffffffff1660e01b81526004018080602001838152602001828103825284818151815260200191508051906020019080838360005b8381101561314e578082015181840152602081019050613133565b50505050905090810190601f16801561317b5780820380516001836020036101000a031916815260200191505b509350505050602060405180830381600087803b15801561319b57600080fd5b505af11580156131af573d6000803e3d6000fd5b505050506040513d60208110156131c557600080fd5b81019080805190602001909291905050509050823a02670de0b6b3a7640000018111156131f8576000801b91505061339d565b6060613203856133be565b90506000809054906101000a900473ffffffffffffffffffffffffffffffffffffffff1673ffffffffffffffffffffffffffffffffffffffff1663c55c1cb68360008985896040518663ffffffff1660e01b8152600401808581526020018060200180602001848152602001838103835286818151815260200191508051906020019080838360005b838110156132a757808201518184015260208101905061328c565b50505050905090810190601f1680156132d45780820380516001836020036101000a031916815260200191505b50838103825285818151815260200191508051906020019080838360005b8381101561330d5780820151818401526020810190506132f2565b50505050905090810190601f16801561333a5780820380516001836020036101000a031916815260200191505b5096505050505050506020604051808303818588803b15801561335c57600080fd5b505af1158015613370573d6000803e3d6000fd5b50505050506040513d602081101561338757600080fd5b8101908080519060200190929190505050925050505b9392505050565b80600290805190602001906133ba9291906137ee565b5050565b60606133c861343e565b6133d061386e565b6133dc8161040061344a565b6133e581613494565b60008090505b83518110156134275761341a84828151811061340357fe5b6020026020010151836134a290919063ffffffff16565b80806001019150506133eb565b50613431816134c7565b8060000151915050919050565b60405180590338823950565b600081905060006020828161345b57fe5b0614613474576020818161346b57fe5b06602003810190505b808360200181815250506040518084526000815281810160405250505050565b61349f8160046134d5565b50565b6134af82600283516134f6565b6134c2818361363690919063ffffffff16565b505050565b6134d28160076134d5565b50565b6134f2601f60058360ff16901b17836136e190919063ffffffff16565b5050565b601781116135225761351d8160058460ff16901b60ff1617846136e190919063ffffffff16565b613631565b60ff811161356357613547601860058460ff16901b17846136e190919063ffffffff16565b61355d816001856137219092919063ffffffff16565b50613630565b61ffff81116135a557613589601960058460ff16901b17846136e190919063ffffffff16565b61359f816002856137219092919063ffffffff16565b5061362f565b63ffffffff81116135e9576135cd601a60058460ff16901b17846136e190919063ffffffff16565b6135e3816004856137219092919063ffffffff16565b5061362e565b67ffffffffffffffff811161362d57613615601b60058460ff16901b17846136e190919063ffffffff16565b61362b816008856137219092919063ffffffff16565b505b5b5b5b5b505050565b61363e61386e565b8260200151836000015151835101111561366e5761366d83600261366786602001518651613788565b026137a4565b5b60008060008451905085518051602081830101945086518101825260208701935050505b602081106136b55781518352602083019250602082019150602081039050613692565b60006001826020036101000a039050801983511681855116818117865250508694505050505092915050565b81602001516001836000015151011115613707576137068260028460200151026137a4565b5b815180516020818301018381536001820183525050505050565b61372961386e565b83602001518460000151518301111561375757613756846002613750876020015186613788565b026137a4565b5b60006001836101000a0390508451805184818301018684198251161781528582018352505050849150509392505050565b60008183111561379a5782905061379e565b8190505b92915050565b6060826000015190506137b7838361344a565b6137c18382613636565b50505050565b60405180608001604052806004905b60608152602001906001900390816137d65790505090565b828054600181600116156101000203166002900490600052602060002090601f016020900481019282601f1061382f57805160ff191683800117855561385d565b8280016001018555821561385d579182015b8281111561385c578251825591602001919060010190613841565b5b50905061386a9190613888565b5090565b604051806040016040528060608152602001600081525090565b6138aa91905b808211156138a657600081600090555060010161388e565b5090565b9056fe536166654d6174683a206d756c7469706c69636174696f6e206f766572666c6f77a265627a7a72315820cbdcba13b7c27c08802c9483a5c0ce8dae0f979305c5f32b2e5ea776545d126a64736f6c634300050c0032",
  "source": "import \"./provableAPI_0.5.sol\";\r\npragma solidity 0.5.12;\r\n\r\nlibrary SafeMath {\r\n    function mul(uint256 a, uint256 b) internal pure returns (uint256) {\r\n        // Gas optimization: this is cheaper than requiring 'a' not being zero, but the\r\n        // benefit is lost if 'b' is also tested.\r\n        // See: https://github.com/OpenZeppelin/openzeppelin-contracts/pull/522\r\n        if (a == 0) {\r\n            return 0;\r\n        }\r\n        uint256 c = a * b;\r\n        require(c / a == b, \"SafeMath: multiplication overflow\");\r\n\r\n        return c;\r\n    }\r\n  }\r\n\r\ncontract CoinFlip is usingProvable{\r\n  uint256 constant NUM_RANDOM_BYTES_REQUESTED = 1;\r\n\r\n  event Player_Win(bool plawin);\r\n\r\n  using SafeMath for uint256;\r\n  address payable owner;\r\n  uint public balance;\r\n  uint public result_random;\r\n  uint private worst_case_balance;\r\n\r\n  struct Player_data {\r\n      bytes32 queryId;\r\n      uint256 amountToWithdraw;\r\n      uint256 bet_player;\r\n      bool current_play;\r\n      bool head_or_tail;\r\n      uint256 player_random_Number;\r\n      bool player_win;\r\n      uint256 status;\r\n    }\r\n\r\n  mapping (address => Player_data) public player_info;\r\n  mapping (bytes32 => address) public player_id_address;\r\n\r\n  constructor () public payable{\r\n    require(msg.value >= 0.5 ether);\r\n    owner = msg.sender;\r\n    balance+=msg.value;\r\n    worst_case_balance+=msg.value;\r\n  }\r\n\r\n  modifier costs(uint cost){\r\n      require(msg.value >= cost);\r\n      _;\r\n  }\r\n\r\nfunction sendFund() public payable costs(1 ether){\r\n  require(msg.value >= 1 ether);\r\n  balance += msg.value;\r\n  worst_case_balance+=msg.value;\r\n}\r\n\r\nfunction __callback(bytes32 _queryId, string memory _result) public {\r\n  require(msg.sender == provable_cbAddress());\r\n  uint256 randomNumber = uint256(keccak256(abi.encodePacked(_result))) % 2;\r\n  player_info[player_id_address[_queryId]].player_random_Number = randomNumber;\r\n  result_random=randomNumber;\r\n  player_info[player_id_address[_queryId]].status=0;\r\n  player_info[player_id_address[_queryId]].player_win=false;\r\n  uint win =0;\r\n\r\n  if ( player_info[player_id_address[_queryId]].player_random_Number == 1 &&  player_info[player_id_address[_queryId]].head_or_tail == true){\r\n    player_info[player_id_address[_queryId]].player_win=true;\r\n    player_info[player_id_address[_queryId]].status=1;\r\n  }\r\n  else if (player_info[player_id_address[_queryId]].player_random_Number == 0 && player_info[player_id_address[_queryId]].head_or_tail == false){\r\n    player_info[player_id_address[_queryId]].player_win=true;\r\n    player_info[player_id_address[_queryId]].status=2;\r\n  }\r\n  else {\r\n    player_info[player_id_address[_queryId]].player_win=false;\r\n    player_info[player_id_address[_queryId]].status=3;\r\n  }\r\n\r\n  if(player_info[player_id_address[_queryId]].player_win==true){\r\n    win =SafeMath.mul(player_info[player_id_address[_queryId]].bet_player,190)/100;\r\n    balance -=win;\r\n    player_info[player_id_address[_queryId]].amountToWithdraw+=win;\r\n    player_info[player_id_address[_queryId]].status=4;\r\n    player_info[player_id_address[_queryId]].current_play=false;\r\n    emit Player_Win(player_info[player_id_address[_queryId]].player_win);\r\n  }\r\n\r\n  else{\r\n    win =SafeMath.mul(player_info[player_id_address[_queryId]].bet_player,200)/100;\r\n    worst_case_balance+=win;\r\n    player_info[player_id_address[_queryId]].current_play=false;\r\n    emit Player_Win(player_info[player_id_address[_queryId]].player_win);\r\n  }\r\n\r\n}\r\n\r\nfunction update() payable public{\r\n  uint256 QUERY_EXECUTION_DELAY = 0;\r\n  uint256 GAS_FOR_CALLBACK = 200000;\r\n  player_info[msg.sender].queryId = provable_newRandomDSQuery(\r\n    QUERY_EXECUTION_DELAY,\r\n    NUM_RANDOM_BYTES_REQUESTED,\r\n    GAS_FOR_CALLBACK\r\n    );\r\n    player_id_address[player_info[msg.sender].queryId]=msg.sender;\r\n}\r\n\r\nfunction withdrawAll() private {\r\n  require(msg.sender == owner);\r\n  uint toTransfer = balance;\r\n  balance = 0;\r\n  msg.sender.transfer(toTransfer);\r\n}\r\n\r\nfunction withdrawUserFunds() public{\r\n    uint toTransfer = player_info[msg.sender].amountToWithdraw;\r\n  player_info[msg.sender].amountToWithdraw = 0;\r\n    msg.sender.transfer(toTransfer);\r\n}\r\n\r\nfunction getUserBalance() public view returns (uint256){\r\n    uint256 user_bal = player_info[msg.sender].amountToWithdraw;\r\n    return user_bal;\r\n}\r\n\r\nfunction getSmartContractBalance() public view returns (uint256){\r\n    return balance;\r\n}\r\n\r\nfunction who_wins() public view returns (bool){\r\n    if (player_info[msg.sender].player_win==true){\r\n      return true;\r\n    }\r\n    else {\r\n      return false;\r\n    }    \r\n}\r\n\r\nfunction FlipTheCoin(bool head_player, bool tail_player) public payable costs(0.1 ether){\r\n  require(msg.value > 0);\r\n  require ((head_player == true && tail_player==false)|| (head_player == false && tail_player==true));\r\n  worst_case_balance-=msg.value;\r\n  require ((balance-msg.value)>0);\r\n  require(balance>worst_case_balance);\r\n  require(player_info[msg.sender].current_play==false);\r\n\r\n  player_info[msg.sender].current_play=true;\r\n  if (head_player){\r\n    player_info[msg.sender].head_or_tail= true;\r\n  }\r\n  else {\r\n    player_info[msg.sender].head_or_tail=false;\r\n  }\r\n\r\n  player_info[msg.sender].bet_player = msg.value;\r\n  balance += msg.value;\r\n  update();\r\n}\r\n\r\n}\r\n",
  "sourcePath": "C:\\Users\\kwoel\\Desktop\\Academy_Ivan\\Solidity\\201\\Dapp\\Dapp_Flipcoin\\contracts\\coinflip.sol",
  "compiler": {
    "name": "solc",
    "version": "0.5.12+commit.7709ece9.Emscripten.clang"
  },
  "schemaVersion": "3.1.0",
  "updatedAt": "2020-05-22T19:45:49.967Z",
  "networkType": "ethereum",
  "devdoc": {
    "methods": {}
  },
  "userdoc": {
    "methods": {}
  }
}